{
	"data": {
		"bytecode": {
			"linkReferences": {},
			"object": "60806040526064600255348015610014575f5ffd5b50604051610e98380380610e9883398181016040528101906100369190610170565b60016100546100496100e060201b60201c565b61010960201b60201c565b5f0181905550815f5f6101000a81548173ffffffffffffffffffffffffffffffffffffffff021916908373ffffffffffffffffffffffffffffffffffffffff1602179055508060015f6101000a81548173ffffffffffffffffffffffffffffffffffffffff021916908373ffffffffffffffffffffffffffffffffffffffff16021790555050506101ae565b5f7f9b779b17422d0df92223018b32b4d1fa46e071723d6817e2486d003becc55f005f1b905090565b5f819050919050565b5f5ffd5b5f73ffffffffffffffffffffffffffffffffffffffff82169050919050565b5f61013f82610116565b9050919050565b61014f81610135565b8114610159575f5ffd5b50565b5f8151905061016a81610146565b92915050565b5f5f6040838503121561018657610185610112565b5b5f6101938582860161015c565b92505060206101a48582860161015c565b9150509250929050565b610cdd806101bb5f395ff3fe608060405234801561000f575f5ffd5b506004361061007b575f3560e01c806372f702f31161005957806372f702f3146100e95780637b0a47ee14610107578063a694fc3a14610125578063ac1f227e146101415761007b565b806332a8aa671461007f5780633ccfd60b146100af57806360217267146100b9575b5f5ffd5b61009960048036038101906100949190610847565b61015f565b6040516100a6919061088a565b60405180910390f35b6100b7610174565b005b6100d360048036038101906100ce9190610847565b61033f565b6040516100e0919061088a565b60405180910390f35b6100f1610354565b6040516100fe91906108fe565b60405180910390f35b61010f610378565b60405161011c919061088a565b60405180910390f35b61013f600480360381019061013a9190610941565b61037e565b005b61014961055d565b604051610156919061098c565b60405180910390f35b6004602052805f5260405f205f915090505481565b61017c610582565b5f60035f3373ffffffffffffffffffffffffffffffffffffffff1673ffffffffffffffffffffffffffffffffffffffff1681526020019081526020015f205490505f81116101ff576040517f08c379a00000000000000000000000000000000000000000000000000000000081526004016101f6906109ff565b60405180910390fd5b610208336105a4565b5f60035f3373ffffffffffffffffffffffffffffffffffffffff1673ffffffffffffffffffffffffffffffffffffffff1681526020019081526020015f20819055505f5f9054906101000a900473ffffffffffffffffffffffffffffffffffffffff1673ffffffffffffffffffffffffffffffffffffffff1663a9059cbb33836040518363ffffffff1660e01b81526004016102a5929190610a2c565b6020604051808303815f875af11580156102c1573d5f5f3e3d5ffd5b505050506040513d601f19601f820116820180604052508101906102e59190610a88565b503373ffffffffffffffffffffffffffffffffffffffff167f7084f5476618d8e60b11ef0d7d3f06914655adb8793e28ff7f018d4c76d505d58260405161032c919061088a565b60405180910390a25061033d610740565b565b6003602052805f5260405f205f915090505481565b5f5f9054906101000a900473ffffffffffffffffffffffffffffffffffffffff1681565b60025481565b610386610582565b5f81116103c8576040517f08c379a00000000000000000000000000000000000000000000000000000000081526004016103bf90610b23565b60405180910390fd5b6103d1336105a4565b5f5f9054906101000a900473ffffffffffffffffffffffffffffffffffffffff1673ffffffffffffffffffffffffffffffffffffffff166323b872dd3330846040518463ffffffff1660e01b815260040161042e93929190610b41565b6020604051808303815f875af115801561044a573d5f5f3e3d5ffd5b505050506040513d601f19601f8201168201806040525081019061046e9190610a88565b508060035f3373ffffffffffffffffffffffffffffffffffffffff1673ffffffffffffffffffffffffffffffffffffffff1681526020019081526020015f205f8282546104bb9190610ba3565b925050819055504360045f3373ffffffffffffffffffffffffffffffffffffffff1673ffffffffffffffffffffffffffffffffffffffff1681526020019081526020015f20819055503373ffffffffffffffffffffffffffffffffffffffff167f9e71bc8eea02a63969f509818f2dafb9254532904319f9dbda79b67bd34a5f3d8260405161054a919061088a565b60405180910390a261055a610740565b50565b60015f9054906101000a900473ffffffffffffffffffffffffffffffffffffffff1681565b61058a61075a565b600261059c61059761079b565b6107c4565b5f0181905550565b5f60045f8373ffffffffffffffffffffffffffffffffffffffff1673ffffffffffffffffffffffffffffffffffffffff1681526020019081526020015f2054436105ee9190610bd6565b90505f670de0b6b3a76400008260025460035f8773ffffffffffffffffffffffffffffffffffffffff1673ffffffffffffffffffffffffffffffffffffffff1681526020019081526020015f20546106469190610c09565b6106509190610c09565b61065a9190610c77565b90505f81111561073b575f5f9054906101000a900473ffffffffffffffffffffffffffffffffffffffff1673ffffffffffffffffffffffffffffffffffffffff166340c10f1984836040518363ffffffff1660e01b81526004016106bf929190610a2c565b5f604051808303815f87803b1580156106d6575f5ffd5b505af11580156106e8573d5f5f3e3d5ffd5b505050508273ffffffffffffffffffffffffffffffffffffffff167fe2403640ba68fed3a2f88b7557551d1993f84b99bb10ff833f0cf8db0c5e048682604051610732919061088a565b60405180910390a25b505050565b600161075261074d61079b565b6107c4565b5f0181905550565b6107626107cd565b15610799576040517f3ee5aeb500000000000000000000000000000000000000000000000000000000815260040160405180910390fd5b565b5f7f9b779b17422d0df92223018b32b4d1fa46e071723d6817e2486d003becc55f005f1b905090565b5f819050919050565b5f60026107e06107db61079b565b6107c4565b5f015414905090565b5f5ffd5b5f73ffffffffffffffffffffffffffffffffffffffff82169050919050565b5f610816826107ed565b9050919050565b6108268161080c565b8114610830575f5ffd5b50565b5f813590506108418161081d565b92915050565b5f6020828403121561085c5761085b6107e9565b5b5f61086984828501610833565b91505092915050565b5f819050919050565b61088481610872565b82525050565b5f60208201905061089d5f83018461087b565b92915050565b5f819050919050565b5f6108c66108c16108bc846107ed565b6108a3565b6107ed565b9050919050565b5f6108d7826108ac565b9050919050565b5f6108e8826108cd565b9050919050565b6108f8816108de565b82525050565b5f6020820190506109115f8301846108ef565b92915050565b61092081610872565b811461092a575f5ffd5b50565b5f8135905061093b81610917565b92915050565b5f60208284031215610956576109556107e9565b5b5f6109638482850161092d565b91505092915050565b5f610976826108cd565b9050919050565b6109868161096c565b82525050565b5f60208201905061099f5f83018461097d565b92915050565b5f82825260208201905092915050565b7f4e616f20686120746f6b656e7320656d207374616b65000000000000000000005f82015250565b5f6109e96016836109a5565b91506109f4826109b5565b602082019050919050565b5f6020820190508181035f830152610a16816109dd565b9050919050565b610a268161080c565b82525050565b5f604082019050610a3f5f830185610a1d565b610a4c602083018461087b565b9392505050565b5f8115159050919050565b610a6781610a53565b8114610a71575f5ffd5b50565b5f81519050610a8281610a5e565b92915050565b5f60208284031215610a9d57610a9c6107e9565b5b5f610aaa84828501610a74565b91505092915050565b7f5175616e746964616465207072656369736120736572206d61696f72207175655f8201527f207a65726f000000000000000000000000000000000000000000000000000000602082015250565b5f610b0d6025836109a5565b9150610b1882610ab3565b604082019050919050565b5f6020820190508181035f830152610b3a81610b01565b9050919050565b5f606082019050610b545f830186610a1d565b610b616020830185610a1d565b610b6e604083018461087b565b949350505050565b7f4e487b71000000000000000000000000000000000000000000000000000000005f52601160045260245ffd5b5f610bad82610872565b9150610bb883610872565b9250828201905080821115610bd057610bcf610b76565b5b92915050565b5f610be082610872565b9150610beb83610872565b9250828203905081811115610c0357610c02610b76565b5b92915050565b5f610c1382610872565b9150610c1e83610872565b9250828202610c2c81610872565b91508282048414831517610c4357610c42610b76565b5b5092915050565b7f4e487b71000000000000000000000000000000000000000000000000000000005f52601260045260245ffd5b5f610c8182610872565b9150610c8c83610872565b925082610c9c57610c9b610c4a565b5b82820490509291505056fea2646970667358221220f374a76f1d82d359fe7339c751c9206deb0212a289b8f35915a7a1a9249cc57164736f6c634300081e0033",
			"opcodes": "PUSH1 0x80 PUSH1 0x40 MSTORE PUSH1 0x64 PUSH1 0x2 SSTORE CALLVALUE DUP1 ISZERO PUSH2 0x14 JUMPI PUSH0 PUSH0 REVERT JUMPDEST POP PUSH1 0x40 MLOAD PUSH2 0xE98 CODESIZE SUB DUP1 PUSH2 0xE98 DUP4 CODECOPY DUP2 DUP2 ADD PUSH1 0x40 MSTORE DUP2 ADD SWAP1 PUSH2 0x36 SWAP2 SWAP1 PUSH2 0x170 JUMP JUMPDEST PUSH1 0x1 PUSH2 0x54 PUSH2 0x49 PUSH2 0xE0 PUSH1 0x20 SHL PUSH1 0x20 SHR JUMP JUMPDEST PUSH2 0x109 PUSH1 0x20 SHL PUSH1 0x20 SHR JUMP JUMPDEST PUSH0 ADD DUP2 SWAP1 SSTORE POP DUP2 PUSH0 PUSH0 PUSH2 0x100 EXP DUP2 SLOAD DUP2 PUSH20 0xFFFFFFFFFFFFFFFFFFFFFFFFFFFFFFFFFFFFFFFF MUL NOT AND SWAP1 DUP4 PUSH20 0xFFFFFFFFFFFFFFFFFFFFFFFFFFFFFFFFFFFFFFFF AND MUL OR SWAP1 SSTORE POP DUP1 PUSH1 0x1 PUSH0 PUSH2 0x100 EXP DUP2 SLOAD DUP2 PUSH20 0xFFFFFFFFFFFFFFFFFFFFFFFFFFFFFFFFFFFFFFFF MUL NOT AND SWAP1 DUP4 PUSH20 0xFFFFFFFFFFFFFFFFFFFFFFFFFFFFFFFFFFFFFFFF AND MUL OR SWAP1 SSTORE POP POP POP PUSH2 0x1AE JUMP JUMPDEST PUSH0 PUSH32 0x9B779B17422D0DF92223018B32B4D1FA46E071723D6817E2486D003BECC55F00 PUSH0 SHL SWAP1 POP SWAP1 JUMP JUMPDEST PUSH0 DUP2 SWAP1 POP SWAP2 SWAP1 POP JUMP JUMPDEST PUSH0 PUSH0 REVERT JUMPDEST PUSH0 PUSH20 0xFFFFFFFFFFFFFFFFFFFFFFFFFFFFFFFFFFFFFFFF DUP3 AND SWAP1 POP SWAP2 SWAP1 POP JUMP JUMPDEST PUSH0 PUSH2 0x13F DUP3 PUSH2 0x116 JUMP JUMPDEST SWAP1 POP SWAP2 SWAP1 POP JUMP JUMPDEST PUSH2 0x14F DUP2 PUSH2 0x135 JUMP JUMPDEST DUP2 EQ PUSH2 0x159 JUMPI PUSH0 PUSH0 REVERT JUMPDEST POP JUMP JUMPDEST PUSH0 DUP2 MLOAD SWAP1 POP PUSH2 0x16A DUP2 PUSH2 0x146 JUMP JUMPDEST SWAP3 SWAP2 POP POP JUMP JUMPDEST PUSH0 PUSH0 PUSH1 0x40 DUP4 DUP6 SUB SLT ISZERO PUSH2 0x186 JUMPI PUSH2 0x185 PUSH2 0x112 JUMP JUMPDEST JUMPDEST PUSH0 PUSH2 0x193 DUP6 DUP3 DUP7 ADD PUSH2 0x15C JUMP JUMPDEST SWAP3 POP POP PUSH1 0x20 PUSH2 0x1A4 DUP6 DUP3 DUP7 ADD PUSH2 0x15C JUMP JUMPDEST SWAP2 POP POP SWAP3 POP SWAP3 SWAP1 POP JUMP JUMPDEST PUSH2 0xCDD DUP1 PUSH2 0x1BB PUSH0 CODECOPY PUSH0 RETURN INVALID PUSH1 0x80 PUSH1 0x40 MSTORE CALLVALUE DUP1 ISZERO PUSH2 0xF JUMPI PUSH0 PUSH0 REVERT JUMPDEST POP PUSH1 0x4 CALLDATASIZE LT PUSH2 0x7B JUMPI PUSH0 CALLDATALOAD PUSH1 0xE0 SHR DUP1 PUSH4 0x72F702F3 GT PUSH2 0x59 JUMPI DUP1 PUSH4 0x72F702F3 EQ PUSH2 0xE9 JUMPI DUP1 PUSH4 0x7B0A47EE EQ PUSH2 0x107 JUMPI DUP1 PUSH4 0xA694FC3A EQ PUSH2 0x125 JUMPI DUP1 PUSH4 0xAC1F227E EQ PUSH2 0x141 JUMPI PUSH2 0x7B JUMP JUMPDEST DUP1 PUSH4 0x32A8AA67 EQ PUSH2 0x7F JUMPI DUP1 PUSH4 0x3CCFD60B EQ PUSH2 0xAF JUMPI DUP1 PUSH4 0x60217267 EQ PUSH2 0xB9 JUMPI JUMPDEST PUSH0 PUSH0 REVERT JUMPDEST PUSH2 0x99 PUSH1 0x4 DUP1 CALLDATASIZE SUB DUP2 ADD SWAP1 PUSH2 0x94 SWAP2 SWAP1 PUSH2 0x847 JUMP JUMPDEST PUSH2 0x15F JUMP JUMPDEST PUSH1 0x40 MLOAD PUSH2 0xA6 SWAP2 SWAP1 PUSH2 0x88A JUMP JUMPDEST PUSH1 0x40 MLOAD DUP1 SWAP2 SUB SWAP1 RETURN JUMPDEST PUSH2 0xB7 PUSH2 0x174 JUMP JUMPDEST STOP JUMPDEST PUSH2 0xD3 PUSH1 0x4 DUP1 CALLDATASIZE SUB DUP2 ADD SWAP1 PUSH2 0xCE SWAP2 SWAP1 PUSH2 0x847 JUMP JUMPDEST PUSH2 0x33F JUMP JUMPDEST PUSH1 0x40 MLOAD PUSH2 0xE0 SWAP2 SWAP1 PUSH2 0x88A JUMP JUMPDEST PUSH1 0x40 MLOAD DUP1 SWAP2 SUB SWAP1 RETURN JUMPDEST PUSH2 0xF1 PUSH2 0x354 JUMP JUMPDEST PUSH1 0x40 MLOAD PUSH2 0xFE SWAP2 SWAP1 PUSH2 0x8FE JUMP JUMPDEST PUSH1 0x40 MLOAD DUP1 SWAP2 SUB SWAP1 RETURN JUMPDEST PUSH2 0x10F PUSH2 0x378 JUMP JUMPDEST PUSH1 0x40 MLOAD PUSH2 0x11C SWAP2 SWAP1 PUSH2 0x88A JUMP JUMPDEST PUSH1 0x40 MLOAD DUP1 SWAP2 SUB SWAP1 RETURN JUMPDEST PUSH2 0x13F PUSH1 0x4 DUP1 CALLDATASIZE SUB DUP2 ADD SWAP1 PUSH2 0x13A SWAP2 SWAP1 PUSH2 0x941 JUMP JUMPDEST PUSH2 0x37E JUMP JUMPDEST STOP JUMPDEST PUSH2 0x149 PUSH2 0x55D JUMP JUMPDEST PUSH1 0x40 MLOAD PUSH2 0x156 SWAP2 SWAP1 PUSH2 0x98C JUMP JUMPDEST PUSH1 0x40 MLOAD DUP1 SWAP2 SUB SWAP1 RETURN JUMPDEST PUSH1 0x4 PUSH1 0x20 MSTORE DUP1 PUSH0 MSTORE PUSH1 0x40 PUSH0 KECCAK256 PUSH0 SWAP2 POP SWAP1 POP SLOAD DUP2 JUMP JUMPDEST PUSH2 0x17C PUSH2 0x582 JUMP JUMPDEST PUSH0 PUSH1 0x3 PUSH0 CALLER PUSH20 0xFFFFFFFFFFFFFFFFFFFFFFFFFFFFFFFFFFFFFFFF AND PUSH20 0xFFFFFFFFFFFFFFFFFFFFFFFFFFFFFFFFFFFFFFFF AND DUP2 MSTORE PUSH1 0x20 ADD SWAP1 DUP2 MSTORE PUSH1 0x20 ADD PUSH0 KECCAK256 SLOAD SWAP1 POP PUSH0 DUP2 GT PUSH2 0x1FF JUMPI PUSH1 0x40 MLOAD PUSH32 0x8C379A000000000000000000000000000000000000000000000000000000000 DUP2 MSTORE PUSH1 0x4 ADD PUSH2 0x1F6 SWAP1 PUSH2 0x9FF JUMP JUMPDEST PUSH1 0x40 MLOAD DUP1 SWAP2 SUB SWAP1 REVERT JUMPDEST PUSH2 0x208 CALLER PUSH2 0x5A4 JUMP JUMPDEST PUSH0 PUSH1 0x3 PUSH0 CALLER PUSH20 0xFFFFFFFFFFFFFFFFFFFFFFFFFFFFFFFFFFFFFFFF AND PUSH20 0xFFFFFFFFFFFFFFFFFFFFFFFFFFFFFFFFFFFFFFFF AND DUP2 MSTORE PUSH1 0x20 ADD SWAP1 DUP2 MSTORE PUSH1 0x20 ADD PUSH0 KECCAK256 DUP2 SWAP1 SSTORE POP PUSH0 PUSH0 SWAP1 SLOAD SWAP1 PUSH2 0x100 EXP SWAP1 DIV PUSH20 0xFFFFFFFFFFFFFFFFFFFFFFFFFFFFFFFFFFFFFFFF AND PUSH20 0xFFFFFFFFFFFFFFFFFFFFFFFFFFFFFFFFFFFFFFFF AND PUSH4 0xA9059CBB CALLER DUP4 PUSH1 0x40 MLOAD DUP4 PUSH4 0xFFFFFFFF AND PUSH1 0xE0 SHL DUP2 MSTORE PUSH1 0x4 ADD PUSH2 0x2A5 SWAP3 SWAP2 SWAP1 PUSH2 0xA2C JUMP JUMPDEST PUSH1 0x20 PUSH1 0x40 MLOAD DUP1 DUP4 SUB DUP2 PUSH0 DUP8 GAS CALL ISZERO DUP1 ISZERO PUSH2 0x2C1 JUMPI RETURNDATASIZE PUSH0 PUSH0 RETURNDATACOPY RETURNDATASIZE PUSH0 REVERT JUMPDEST POP POP POP POP PUSH1 0x40 MLOAD RETURNDATASIZE PUSH1 0x1F NOT PUSH1 0x1F DUP3 ADD AND DUP3 ADD DUP1 PUSH1 0x40 MSTORE POP DUP2 ADD SWAP1 PUSH2 0x2E5 SWAP2 SWAP1 PUSH2 0xA88 JUMP JUMPDEST POP CALLER PUSH20 0xFFFFFFFFFFFFFFFFFFFFFFFFFFFFFFFFFFFFFFFF AND PUSH32 0x7084F5476618D8E60B11EF0D7D3F06914655ADB8793E28FF7F018D4C76D505D5 DUP3 PUSH1 0x40 MLOAD PUSH2 0x32C SWAP2 SWAP1 PUSH2 0x88A JUMP JUMPDEST PUSH1 0x40 MLOAD DUP1 SWAP2 SUB SWAP1 LOG2 POP PUSH2 0x33D PUSH2 0x740 JUMP JUMPDEST JUMP JUMPDEST PUSH1 0x3 PUSH1 0x20 MSTORE DUP1 PUSH0 MSTORE PUSH1 0x40 PUSH0 KECCAK256 PUSH0 SWAP2 POP SWAP1 POP SLOAD DUP2 JUMP JUMPDEST PUSH0 PUSH0 SWAP1 SLOAD SWAP1 PUSH2 0x100 EXP SWAP1 DIV PUSH20 0xFFFFFFFFFFFFFFFFFFFFFFFFFFFFFFFFFFFFFFFF AND DUP2 JUMP JUMPDEST PUSH1 0x2 SLOAD DUP2 JUMP JUMPDEST PUSH2 0x386 PUSH2 0x582 JUMP JUMPDEST PUSH0 DUP2 GT PUSH2 0x3C8 JUMPI PUSH1 0x40 MLOAD PUSH32 0x8C379A000000000000000000000000000000000000000000000000000000000 DUP2 MSTORE PUSH1 0x4 ADD PUSH2 0x3BF SWAP1 PUSH2 0xB23 JUMP JUMPDEST PUSH1 0x40 MLOAD DUP1 SWAP2 SUB SWAP1 REVERT JUMPDEST PUSH2 0x3D1 CALLER PUSH2 0x5A4 JUMP JUMPDEST PUSH0 PUSH0 SWAP1 SLOAD SWAP1 PUSH2 0x100 EXP SWAP1 DIV PUSH20 0xFFFFFFFFFFFFFFFFFFFFFFFFFFFFFFFFFFFFFFFF AND PUSH20 0xFFFFFFFFFFFFFFFFFFFFFFFFFFFFFFFFFFFFFFFF AND PUSH4 0x23B872DD CALLER ADDRESS DUP5 PUSH1 0x40 MLOAD DUP5 PUSH4 0xFFFFFFFF AND PUSH1 0xE0 SHL DUP2 MSTORE PUSH1 0x4 ADD PUSH2 0x42E SWAP4 SWAP3 SWAP2 SWAP1 PUSH2 0xB41 JUMP JUMPDEST PUSH1 0x20 PUSH1 0x40 MLOAD DUP1 DUP4 SUB DUP2 PUSH0 DUP8 GAS CALL ISZERO DUP1 ISZERO PUSH2 0x44A JUMPI RETURNDATASIZE PUSH0 PUSH0 RETURNDATACOPY RETURNDATASIZE PUSH0 REVERT JUMPDEST POP POP POP POP PUSH1 0x40 MLOAD RETURNDATASIZE PUSH1 0x1F NOT PUSH1 0x1F DUP3 ADD AND DUP3 ADD DUP1 PUSH1 0x40 MSTORE POP DUP2 ADD SWAP1 PUSH2 0x46E SWAP2 SWAP1 PUSH2 0xA88 JUMP JUMPDEST POP DUP1 PUSH1 0x3 PUSH0 CALLER PUSH20 0xFFFFFFFFFFFFFFFFFFFFFFFFFFFFFFFFFFFFFFFF AND PUSH20 0xFFFFFFFFFFFFFFFFFFFFFFFFFFFFFFFFFFFFFFFF AND DUP2 MSTORE PUSH1 0x20 ADD SWAP1 DUP2 MSTORE PUSH1 0x20 ADD PUSH0 KECCAK256 PUSH0 DUP3 DUP3 SLOAD PUSH2 0x4BB SWAP2 SWAP1 PUSH2 0xBA3 JUMP JUMPDEST SWAP3 POP POP DUP2 SWAP1 SSTORE POP NUMBER PUSH1 0x4 PUSH0 CALLER PUSH20 0xFFFFFFFFFFFFFFFFFFFFFFFFFFFFFFFFFFFFFFFF AND PUSH20 0xFFFFFFFFFFFFFFFFFFFFFFFFFFFFFFFFFFFFFFFF AND DUP2 MSTORE PUSH1 0x20 ADD SWAP1 DUP2 MSTORE PUSH1 0x20 ADD PUSH0 KECCAK256 DUP2 SWAP1 SSTORE POP CALLER PUSH20 0xFFFFFFFFFFFFFFFFFFFFFFFFFFFFFFFFFFFFFFFF AND PUSH32 0x9E71BC8EEA02A63969F509818F2DAFB9254532904319F9DBDA79B67BD34A5F3D DUP3 PUSH1 0x40 MLOAD PUSH2 0x54A SWAP2 SWAP1 PUSH2 0x88A JUMP JUMPDEST PUSH1 0x40 MLOAD DUP1 SWAP2 SUB SWAP1 LOG2 PUSH2 0x55A PUSH2 0x740 JUMP JUMPDEST POP JUMP JUMPDEST PUSH1 0x1 PUSH0 SWAP1 SLOAD SWAP1 PUSH2 0x100 EXP SWAP1 DIV PUSH20 0xFFFFFFFFFFFFFFFFFFFFFFFFFFFFFFFFFFFFFFFF AND DUP2 JUMP JUMPDEST PUSH2 0x58A PUSH2 0x75A JUMP JUMPDEST PUSH1 0x2 PUSH2 0x59C PUSH2 0x597 PUSH2 0x79B JUMP JUMPDEST PUSH2 0x7C4 JUMP JUMPDEST PUSH0 ADD DUP2 SWAP1 SSTORE POP JUMP JUMPDEST PUSH0 PUSH1 0x4 PUSH0 DUP4 PUSH20 0xFFFFFFFFFFFFFFFFFFFFFFFFFFFFFFFFFFFFFFFF AND PUSH20 0xFFFFFFFFFFFFFFFFFFFFFFFFFFFFFFFFFFFFFFFF AND DUP2 MSTORE PUSH1 0x20 ADD SWAP1 DUP2 MSTORE PUSH1 0x20 ADD PUSH0 KECCAK256 SLOAD NUMBER PUSH2 0x5EE SWAP2 SWAP1 PUSH2 0xBD6 JUMP JUMPDEST SWAP1 POP PUSH0 PUSH8 0xDE0B6B3A7640000 DUP3 PUSH1 0x2 SLOAD PUSH1 0x3 PUSH0 DUP8 PUSH20 0xFFFFFFFFFFFFFFFFFFFFFFFFFFFFFFFFFFFFFFFF AND PUSH20 0xFFFFFFFFFFFFFFFFFFFFFFFFFFFFFFFFFFFFFFFF AND DUP2 MSTORE PUSH1 0x20 ADD SWAP1 DUP2 MSTORE PUSH1 0x20 ADD PUSH0 KECCAK256 SLOAD PUSH2 0x646 SWAP2 SWAP1 PUSH2 0xC09 JUMP JUMPDEST PUSH2 0x650 SWAP2 SWAP1 PUSH2 0xC09 JUMP JUMPDEST PUSH2 0x65A SWAP2 SWAP1 PUSH2 0xC77 JUMP JUMPDEST SWAP1 POP PUSH0 DUP2 GT ISZERO PUSH2 0x73B JUMPI PUSH0 PUSH0 SWAP1 SLOAD SWAP1 PUSH2 0x100 EXP SWAP1 DIV PUSH20 0xFFFFFFFFFFFFFFFFFFFFFFFFFFFFFFFFFFFFFFFF AND PUSH20 0xFFFFFFFFFFFFFFFFFFFFFFFFFFFFFFFFFFFFFFFF AND PUSH4 0x40C10F19 DUP5 DUP4 PUSH1 0x40 MLOAD DUP4 PUSH4 0xFFFFFFFF AND PUSH1 0xE0 SHL DUP2 MSTORE PUSH1 0x4 ADD PUSH2 0x6BF SWAP3 SWAP2 SWAP1 PUSH2 0xA2C JUMP JUMPDEST PUSH0 PUSH1 0x40 MLOAD DUP1 DUP4 SUB DUP2 PUSH0 DUP8 DUP1 EXTCODESIZE ISZERO DUP1 ISZERO PUSH2 0x6D6 JUMPI PUSH0 PUSH0 REVERT JUMPDEST POP GAS CALL ISZERO DUP1 ISZERO PUSH2 0x6E8 JUMPI RETURNDATASIZE PUSH0 PUSH0 RETURNDATACOPY RETURNDATASIZE PUSH0 REVERT JUMPDEST POP POP POP POP DUP3 PUSH20 0xFFFFFFFFFFFFFFFFFFFFFFFFFFFFFFFFFFFFFFFF AND PUSH32 0xE2403640BA68FED3A2F88B7557551D1993F84B99BB10FF833F0CF8DB0C5E0486 DUP3 PUSH1 0x40 MLOAD PUSH2 0x732 SWAP2 SWAP1 PUSH2 0x88A JUMP JUMPDEST PUSH1 0x40 MLOAD DUP1 SWAP2 SUB SWAP1 LOG2 JUMPDEST POP POP POP JUMP JUMPDEST PUSH1 0x1 PUSH2 0x752 PUSH2 0x74D PUSH2 0x79B JUMP JUMPDEST PUSH2 0x7C4 JUMP JUMPDEST PUSH0 ADD DUP2 SWAP1 SSTORE POP JUMP JUMPDEST PUSH2 0x762 PUSH2 0x7CD JUMP JUMPDEST ISZERO PUSH2 0x799 JUMPI PUSH1 0x40 MLOAD PUSH32 0x3EE5AEB500000000000000000000000000000000000000000000000000000000 DUP2 MSTORE PUSH1 0x4 ADD PUSH1 0x40 MLOAD DUP1 SWAP2 SUB SWAP1 REVERT JUMPDEST JUMP JUMPDEST PUSH0 PUSH32 0x9B779B17422D0DF92223018B32B4D1FA46E071723D6817E2486D003BECC55F00 PUSH0 SHL SWAP1 POP SWAP1 JUMP JUMPDEST PUSH0 DUP2 SWAP1 POP SWAP2 SWAP1 POP JUMP JUMPDEST PUSH0 PUSH1 0x2 PUSH2 0x7E0 PUSH2 0x7DB PUSH2 0x79B JUMP JUMPDEST PUSH2 0x7C4 JUMP JUMPDEST PUSH0 ADD SLOAD EQ SWAP1 POP SWAP1 JUMP JUMPDEST PUSH0 PUSH0 REVERT JUMPDEST PUSH0 PUSH20 0xFFFFFFFFFFFFFFFFFFFFFFFFFFFFFFFFFFFFFFFF DUP3 AND SWAP1 POP SWAP2 SWAP1 POP JUMP JUMPDEST PUSH0 PUSH2 0x816 DUP3 PUSH2 0x7ED JUMP JUMPDEST SWAP1 POP SWAP2 SWAP1 POP JUMP JUMPDEST PUSH2 0x826 DUP2 PUSH2 0x80C JUMP JUMPDEST DUP2 EQ PUSH2 0x830 JUMPI PUSH0 PUSH0 REVERT JUMPDEST POP JUMP JUMPDEST PUSH0 DUP2 CALLDATALOAD SWAP1 POP PUSH2 0x841 DUP2 PUSH2 0x81D JUMP JUMPDEST SWAP3 SWAP2 POP POP JUMP JUMPDEST PUSH0 PUSH1 0x20 DUP3 DUP5 SUB SLT ISZERO PUSH2 0x85C JUMPI PUSH2 0x85B PUSH2 0x7E9 JUMP JUMPDEST JUMPDEST PUSH0 PUSH2 0x869 DUP5 DUP3 DUP6 ADD PUSH2 0x833 JUMP JUMPDEST SWAP2 POP POP SWAP3 SWAP2 POP POP JUMP JUMPDEST PUSH0 DUP2 SWAP1 POP SWAP2 SWAP1 POP JUMP JUMPDEST PUSH2 0x884 DUP2 PUSH2 0x872 JUMP JUMPDEST DUP3 MSTORE POP POP JUMP JUMPDEST PUSH0 PUSH1 0x20 DUP3 ADD SWAP1 POP PUSH2 0x89D PUSH0 DUP4 ADD DUP5 PUSH2 0x87B JUMP JUMPDEST SWAP3 SWAP2 POP POP JUMP JUMPDEST PUSH0 DUP2 SWAP1 POP SWAP2 SWAP1 POP JUMP JUMPDEST PUSH0 PUSH2 0x8C6 PUSH2 0x8C1 PUSH2 0x8BC DUP5 PUSH2 0x7ED JUMP JUMPDEST PUSH2 0x8A3 JUMP JUMPDEST PUSH2 0x7ED JUMP JUMPDEST SWAP1 POP SWAP2 SWAP1 POP JUMP JUMPDEST PUSH0 PUSH2 0x8D7 DUP3 PUSH2 0x8AC JUMP JUMPDEST SWAP1 POP SWAP2 SWAP1 POP JUMP JUMPDEST PUSH0 PUSH2 0x8E8 DUP3 PUSH2 0x8CD JUMP JUMPDEST SWAP1 POP SWAP2 SWAP1 POP JUMP JUMPDEST PUSH2 0x8F8 DUP2 PUSH2 0x8DE JUMP JUMPDEST DUP3 MSTORE POP POP JUMP JUMPDEST PUSH0 PUSH1 0x20 DUP3 ADD SWAP1 POP PUSH2 0x911 PUSH0 DUP4 ADD DUP5 PUSH2 0x8EF JUMP JUMPDEST SWAP3 SWAP2 POP POP JUMP JUMPDEST PUSH2 0x920 DUP2 PUSH2 0x872 JUMP JUMPDEST DUP2 EQ PUSH2 0x92A JUMPI PUSH0 PUSH0 REVERT JUMPDEST POP JUMP JUMPDEST PUSH0 DUP2 CALLDATALOAD SWAP1 POP PUSH2 0x93B DUP2 PUSH2 0x917 JUMP JUMPDEST SWAP3 SWAP2 POP POP JUMP JUMPDEST PUSH0 PUSH1 0x20 DUP3 DUP5 SUB SLT ISZERO PUSH2 0x956 JUMPI PUSH2 0x955 PUSH2 0x7E9 JUMP JUMPDEST JUMPDEST PUSH0 PUSH2 0x963 DUP5 DUP3 DUP6 ADD PUSH2 0x92D JUMP JUMPDEST SWAP2 POP POP SWAP3 SWAP2 POP POP JUMP JUMPDEST PUSH0 PUSH2 0x976 DUP3 PUSH2 0x8CD JUMP JUMPDEST SWAP1 POP SWAP2 SWAP1 POP JUMP JUMPDEST PUSH2 0x986 DUP2 PUSH2 0x96C JUMP JUMPDEST DUP3 MSTORE POP POP JUMP JUMPDEST PUSH0 PUSH1 0x20 DUP3 ADD SWAP1 POP PUSH2 0x99F PUSH0 DUP4 ADD DUP5 PUSH2 0x97D JUMP JUMPDEST SWAP3 SWAP2 POP POP JUMP JUMPDEST PUSH0 DUP3 DUP3 MSTORE PUSH1 0x20 DUP3 ADD SWAP1 POP SWAP3 SWAP2 POP POP JUMP JUMPDEST PUSH32 0x4E616F20686120746F6B656E7320656D207374616B6500000000000000000000 PUSH0 DUP3 ADD MSTORE POP JUMP JUMPDEST PUSH0 PUSH2 0x9E9 PUSH1 0x16 DUP4 PUSH2 0x9A5 JUMP JUMPDEST SWAP2 POP PUSH2 0x9F4 DUP3 PUSH2 0x9B5 JUMP JUMPDEST PUSH1 0x20 DUP3 ADD SWAP1 POP SWAP2 SWAP1 POP JUMP JUMPDEST PUSH0 PUSH1 0x20 DUP3 ADD SWAP1 POP DUP2 DUP2 SUB PUSH0 DUP4 ADD MSTORE PUSH2 0xA16 DUP2 PUSH2 0x9DD JUMP JUMPDEST SWAP1 POP SWAP2 SWAP1 POP JUMP JUMPDEST PUSH2 0xA26 DUP2 PUSH2 0x80C JUMP JUMPDEST DUP3 MSTORE POP POP JUMP JUMPDEST PUSH0 PUSH1 0x40 DUP3 ADD SWAP1 POP PUSH2 0xA3F PUSH0 DUP4 ADD DUP6 PUSH2 0xA1D JUMP JUMPDEST PUSH2 0xA4C PUSH1 0x20 DUP4 ADD DUP5 PUSH2 0x87B JUMP JUMPDEST SWAP4 SWAP3 POP POP POP JUMP JUMPDEST PUSH0 DUP2 ISZERO ISZERO SWAP1 POP SWAP2 SWAP1 POP JUMP JUMPDEST PUSH2 0xA67 DUP2 PUSH2 0xA53 JUMP JUMPDEST DUP2 EQ PUSH2 0xA71 JUMPI PUSH0 PUSH0 REVERT JUMPDEST POP JUMP JUMPDEST PUSH0 DUP2 MLOAD SWAP1 POP PUSH2 0xA82 DUP2 PUSH2 0xA5E JUMP JUMPDEST SWAP3 SWAP2 POP POP JUMP JUMPDEST PUSH0 PUSH1 0x20 DUP3 DUP5 SUB SLT ISZERO PUSH2 0xA9D JUMPI PUSH2 0xA9C PUSH2 0x7E9 JUMP JUMPDEST JUMPDEST PUSH0 PUSH2 0xAAA DUP5 DUP3 DUP6 ADD PUSH2 0xA74 JUMP JUMPDEST SWAP2 POP POP SWAP3 SWAP2 POP POP JUMP JUMPDEST PUSH32 0x5175616E746964616465207072656369736120736572206D61696F7220717565 PUSH0 DUP3 ADD MSTORE PUSH32 0x207A65726F000000000000000000000000000000000000000000000000000000 PUSH1 0x20 DUP3 ADD MSTORE POP JUMP JUMPDEST PUSH0 PUSH2 0xB0D PUSH1 0x25 DUP4 PUSH2 0x9A5 JUMP JUMPDEST SWAP2 POP PUSH2 0xB18 DUP3 PUSH2 0xAB3 JUMP JUMPDEST PUSH1 0x40 DUP3 ADD SWAP1 POP SWAP2 SWAP1 POP JUMP JUMPDEST PUSH0 PUSH1 0x20 DUP3 ADD SWAP1 POP DUP2 DUP2 SUB PUSH0 DUP4 ADD MSTORE PUSH2 0xB3A DUP2 PUSH2 0xB01 JUMP JUMPDEST SWAP1 POP SWAP2 SWAP1 POP JUMP JUMPDEST PUSH0 PUSH1 0x60 DUP3 ADD SWAP1 POP PUSH2 0xB54 PUSH0 DUP4 ADD DUP7 PUSH2 0xA1D JUMP JUMPDEST PUSH2 0xB61 PUSH1 0x20 DUP4 ADD DUP6 PUSH2 0xA1D JUMP JUMPDEST PUSH2 0xB6E PUSH1 0x40 DUP4 ADD DUP5 PUSH2 0x87B JUMP JUMPDEST SWAP5 SWAP4 POP POP POP POP JUMP JUMPDEST PUSH32 0x4E487B7100000000000000000000000000000000000000000000000000000000 PUSH0 MSTORE PUSH1 0x11 PUSH1 0x4 MSTORE PUSH1 0x24 PUSH0 REVERT JUMPDEST PUSH0 PUSH2 0xBAD DUP3 PUSH2 0x872 JUMP JUMPDEST SWAP2 POP PUSH2 0xBB8 DUP4 PUSH2 0x872 JUMP JUMPDEST SWAP3 POP DUP3 DUP3 ADD SWAP1 POP DUP1 DUP3 GT ISZERO PUSH2 0xBD0 JUMPI PUSH2 0xBCF PUSH2 0xB76 JUMP JUMPDEST JUMPDEST SWAP3 SWAP2 POP POP JUMP JUMPDEST PUSH0 PUSH2 0xBE0 DUP3 PUSH2 0x872 JUMP JUMPDEST SWAP2 POP PUSH2 0xBEB DUP4 PUSH2 0x872 JUMP JUMPDEST SWAP3 POP DUP3 DUP3 SUB SWAP1 POP DUP2 DUP2 GT ISZERO PUSH2 0xC03 JUMPI PUSH2 0xC02 PUSH2 0xB76 JUMP JUMPDEST JUMPDEST SWAP3 SWAP2 POP POP JUMP JUMPDEST PUSH0 PUSH2 0xC13 DUP3 PUSH2 0x872 JUMP JUMPDEST SWAP2 POP PUSH2 0xC1E DUP4 PUSH2 0x872 JUMP JUMPDEST SWAP3 POP DUP3 DUP3 MUL PUSH2 0xC2C DUP2 PUSH2 0x872 JUMP JUMPDEST SWAP2 POP DUP3 DUP3 DIV DUP5 EQ DUP4 ISZERO OR PUSH2 0xC43 JUMPI PUSH2 0xC42 PUSH2 0xB76 JUMP JUMPDEST JUMPDEST POP SWAP3 SWAP2 POP POP JUMP JUMPDEST PUSH32 0x4E487B7100000000000000000000000000000000000000000000000000000000 PUSH0 MSTORE PUSH1 0x12 PUSH1 0x4 MSTORE PUSH1 0x24 PUSH0 REVERT JUMPDEST PUSH0 PUSH2 0xC81 DUP3 PUSH2 0x872 JUMP JUMPDEST SWAP2 POP PUSH2 0xC8C DUP4 PUSH2 0x872 JUMP JUMPDEST SWAP3 POP DUP3 PUSH2 0xC9C JUMPI PUSH2 0xC9B PUSH2 0xC4A JUMP JUMPDEST JUMPDEST DUP3 DUP3 DIV SWAP1 POP SWAP3 SWAP2 POP POP JUMP INVALID LOG2 PUSH5 0x6970667358 0x22 SLT KECCAK256 RETURN PUSH21 0xA76F1D82D359FE7339C751C9206DEB0212A289B8F3 MSIZE ISZERO 0xA7 LOG1 0xA9 0x24 SWAP13 0xC5 PUSH18 0x64736F6C634300081E003300000000000000 "
		},
		"gasEstimates": {
			"creation": {
				"codeDepositCost": "658600",
				"executionCost": "infinite",
				"totalCost": "infinite"
			},
			"external": {
				"lastUpdateBlock(address)": "2803",
				"nftBadge()": "infinite",
				"rewardRate()": "2447",
				"stake(uint256)": "infinite",
				"stakedBalance(address)": "2847",
				"stakingToken()": "infinite",
				"withdraw()": "infinite"
			},
			"internal": {
				"_mintRewards(address)": "infinite"
			}
		},
		"methodIdentifiers": {
			"lastUpdateBlock(address)": "32a8aa67",
			"nftBadge()": "ac1f227e",
			"rewardRate()": "7b0a47ee",
			"stake(uint256)": "a694fc3a",
			"stakedBalance(address)": "60217267",
			"stakingToken()": "72f702f3",
			"withdraw()": "3ccfd60b"
		}
	},
	"abi": [
		{
			"inputs": [
				{
					"internalType": "address",
					"name": "_token",
					"type": "address"
				},
				{
					"internalType": "address",
					"name": "_nft",
					"type": "address"
				}
			],
			"stateMutability": "nonpayable",
			"type": "constructor"
		},
		{
			"inputs": [],
			"name": "ReentrancyGuardReentrantCall",
			"type": "error"
		},
		{
			"anonymous": false,
			"inputs": [
				{
					"indexed": true,
					"internalType": "address",
					"name": "user",
					"type": "address"
				},
				{
					"indexed": false,
					"internalType": "uint256",
					"name": "reward",
					"type": "uint256"
				}
			],
			"name": "RewardPaid",
			"type": "event"
		},
		{
			"anonymous": false,
			"inputs": [
				{
					"indexed": true,
					"internalType": "address",
					"name": "user",
					"type": "address"
				},
				{
					"indexed": false,
					"internalType": "uint256",
					"name": "amount",
					"type": "uint256"
				}
			],
			"name": "Staked",
			"type": "event"
		},
		{
			"anonymous": false,
			"inputs": [
				{
					"indexed": true,
					"internalType": "address",
					"name": "user",
					"type": "address"
				},
				{
					"indexed": false,
					"internalType": "uint256",
					"name": "amount",
					"type": "uint256"
				}
			],
			"name": "Withdrawn",
			"type": "event"
		},
		{
			"inputs": [
				{
					"internalType": "address",
					"name": "",
					"type": "address"
				}
			],
			"name": "lastUpdateBlock",
			"outputs": [
				{
					"internalType": "uint256",
					"name": "",
					"type": "uint256"
				}
			],
			"stateMutability": "view",
			"type": "function"
		},
		{
			"inputs": [],
			"name": "nftBadge",
			"outputs": [
				{
					"internalType": "contract EcoBadge",
					"name": "",
					"type": "address"
				}
			],
			"stateMutability": "view",
			"type": "function"
		},
		{
			"inputs": [],
			"name": "rewardRate",
			"outputs": [
				{
					"internalType": "uint256",
					"name": "",
					"type": "uint256"
				}
			],
			"stateMutability": "view",
			"type": "function"
		},
		{
			"inputs": [
				{
					"internalType": "uint256",
					"name": "_amount",
					"type": "uint256"
				}
			],
			"name": "stake",
			"outputs": [],
			"stateMutability": "nonpayable",
			"type": "function"
		},
		{
			"inputs": [
				{
					"internalType": "address",
					"name": "",
					"type": "address"
				}
			],
			"name": "stakedBalance",
			"outputs": [
				{
					"internalType": "uint256",
					"name": "",
					"type": "uint256"
				}
			],
			"stateMutability": "view",
			"type": "function"
		},
		{
			"inputs": [],
			"name": "stakingToken",
			"outputs": [
				{
					"internalType": "contract EcoToken",
					"name": "",
					"type": "address"
				}
			],
			"stateMutability": "view",
			"type": "function"
		},
		{
			"inputs": [],
			"name": "withdraw",
			"outputs": [],
			"stateMutability": "nonpayable",
			"type": "function"
		}
	]
}